:1000000033C000004CC0000075C0000048C00000B4
:1000100046C0000044C0000042C0000040C00000D4
:100020003EC000003CC000003AC0000038C00000E4
:1000300036C0000034C0000032C0000030C00000F4
:100040002EC000002CC000002AC0000028C0000004
:1000500026C0000024C0000022C0000020C0000014
:100060001EC000001CC0000011241FBECFEFD4E052
:10007000DEBFCDBF11E0A0E0B1E0EAE2F7E002C0F0
:1000800005900D92A834B107D9F711E0A8E4B1E0CA
:1000900001C01D92AC34B107E1F74CD044C3B0CFDE
:1000A000109285001092840078948FE097E2019777
:1000B000F1F700C00000F89460914A0170914B0183
:1000C00080E090E0F6D12DEB37E346E854E37FD2B1
:1000D00020E030E040E054E47AD29B01AC0160E0E3
:1000E00070E080E792E451D1B8D1709349016093F8
:1000F000480108951F920F920FB60F9211248F930B
:100100009F938091840090918500899740F0809121
:1001100084009091850090934B0180934A01109246
:100120008500109284009F918F910F900FBE0F90C9
:100130001F90189591E080E80FB6F89480936100C5
:10014000909361000FBEDCD08091C0008F778093C8
:10015000C00084B5816084BD84B5826084BD84B5EF
:10016000806884BD85B5836085BD17BC80918100A2
:100170008160809381008AB1876F8AB987B18E6F61
:1001800087B95B9A409A809169008C60809369007E
:10019000E99A569AC0E0D0E038EEE32E33E0F32E31
:1001A00044E6742E50E1A52E57E2B52E0AE010E089
:1001B00064E6C62ED12C8091C00087FF3AC080E053
:1001C00091E0BDD080E3982E90E3892E20E3622E4B
:1001D000D0E3AED0C82FA5D0CD3029F0D62D682CD5
:1001E000892C9C2EF6CF8AE09CD04D2F50E04053B6
:1001F00051094E9DE0014F9DD00D5E9DD00D112403
:10020000262D30E020533109729EA001739E500DBF
:100210001124C40FD51F882D90E0C0974AE0489F55
:100220009001499F300D1124C20FD31FC90DD11D5C
:10023000E09780914801909149018C179D0790F4B7
:1002400080914801909149018C179D07E8F487B58A
:100250008F5F87BD25DF8FE295E70197F1F700C03B
:100260000000EECF8091480190914901C817D9074D
:1002700058F487B5815087BD13DF8FE295E701976A
:10028000F1F700C00000EECF609148017091490184
:1002900080E090E00ED1FED1E0D04B01CB01B50162
:1002A00060D080E3860F3DD0C401B7015AD0CB01A6
:1002B000B80157D0805D35D0C401B60152D0CB0112
:1002C000B8014FD0805D2DD0C401B8014AD0982E1E
:1002D000CB01B80146D0805D24D080E3890D21D0C8
:1002E00084E491E02CD088E391E029D09FE728E3D3
:1002F00081E0915020408040E1F700C000005BCFDA
:100300001092C50089E18093C400E0ECF0E08081A8
:100310008D7F808388E18093C10086E08093C20056
:1003200008959091C00095FFFCCF8093C60008957A
:100330008091C00087FFFCCF8091C60008951F9375
:10034000CF93DF93EC0110E0FE01E10FF11D8081FE
:10035000882319F0E6DF1F5FF7CFDF91CF911F9160
:100360000895AA1BBB1B51E107C0AA1FBB1FA617FC
:10037000B70710F0A61BB70B881F991F5A95A9F74E
:1003800080959095BC01CD0108950CD0E6C0DED0DB
:1003900040F0D5D030F021F45F3F19F0C7C05111C3
:1003A00010C1CAC0EBD098F39923C9F35523B1F318
:1003B000951B550BBB27AA2762177307840738F0D4
:1003C0009F5F5F4F220F331F441FAA1FA9F333D033
:1003D0000E2E3AF0E0E830D091505040E695001CE7
:1003E000CAF729D0FE2F27D0660F771F881FBB1FA3
:1003F000261737074807AB07B0E809F0BB0B802D7D
:10040000BF01FF2793585F4F2AF09E3F510568F0C8
:100410008DC0D7C05F3FECF3983EDCF386957795AF
:100420006795B795F7959F5FC9F7880F911D9695CA
:10043000879597F90895E1E0660F771F881FBB1F26
:10044000621773078407BA0720F0621B730B840BD3
:10045000BA0BEE1F88F7E095089598D088F09F5763
:1004600090F0B92F9927B751A0F0D1F0660F771F00
:10047000881F991F1AF0BA95C9F712C0B13081F0E0
:100480009FD0B1E008959CC0672F782F8827B85F70
:1004900039F0B93FCCF3869577956795B395D9F741
:1004A0003EF490958095709561957F4F8F4F9F4F4B
:1004B0000895E89409C097FB3EF490958095709557
:1004C00061957F4F8F4F9F4F9923A9F0F92F96E9A0
:1004D000BB279395F695879577956795B795F11115
:1004E000F8CFFAF4BB0F11F460FF1BC06F5F7F4FB2
:1004F0008F4F9F4F16C0882311F096E911C07723C4
:1005000021F09EE8872F762F05C0662371F096E8CC
:10051000862F70E060E02AF09A95660F771F881F9B
:10052000DAF7880F9695879597F9089597F99F6759
:1005300080E870E060E008959FEF80EC089500246B
:100540000A941616170618060906089500240A9438
:1005500012161306140605060895092E0394000CBE
:1005600011F4882352F0BB0F40F4BF2B11F460FF4D
:1005700004C06F5F7F4F8F4F9F4F089557FD905876
:10058000440F551F59F05F3F71F04795880F97FB57
:10059000991F61F09F3F79F0879508951216130611
:1005A0001406551FF2CF4695F1DF08C01616170640
:1005B0001806991FF1CF8695710561050894089575
:1005C000E894BB2766277727CB0197F908950BD0CE
:1005D000C4CFB5DF28F0BADF18F0952309F0A6CF15
:1005E000ABCF1124EECFCADFA0F3959FD1F3950FC7
:1005F00050E0551F629FF001729FBB27F00DB11DA7
:10060000639FAA27F00DB11DAA1F649F6627B00D36
:10061000A11D661F829F2227B00DA11D621F739F1F
:10062000B00DA11D621F839FA00D611D221F749F2D
:100630003327A00D611D231F849F600D211D822F74
:10064000762F6A2F11249F5750408AF0E1F08823BB
:100650004AF0EE0FFF1FBB1F661F771F881F9150C8
:100660005040A9F79E3F510570F060CFAACF5F3F81
:10067000ECF3983EDCF3869577956795B795F795FB
:10068000E7959F5FC1F7FE2B880F911D9695879583
:1006900097F908957BDFE0F09E37D8F09639B8F4EB
:1006A0009E3848F4672F782F8827985FF9CF869572
:1006B0007795679593959539D0F3B62FB1706B0FF9
:1006C000711D811D20F4879577956795939502C0DC
:1006D0001CC077CF882371F4772321F09850872BA3
:1006E000762F07C0662311F499270DC09051862BF1
:1006F00070E060E02AF09A95660F771F881FDAF79E
:10070000880F9695879597F908959F3F31F09150FE
:1007100020F4879577956795B795880F911D9695E5
:0A072000879597F90895F894FFCF2C
:10072A000D0A456E7465722061206465736972658D
:10073A00642072706D206E756D62657220666F72CC
:10074A00206D6F746F72202832303020746F20351C
:10075A00303030293A0D0A003D3D3D3D3D3D3D3D9D
:08076A003D3D0D0A0D0A0000DF
:00000001FF
