:1000000033C000004CC000008FC0000048C000009A
:1000100046C0000044C0000042C0000040C00000D4
:100020003EC000003CC000003AC0000038C00000E4
:1000300036C0000034C0000032C0000030C00000F4
:100040002EC000002CC000002AC0000028C0000004
:1000500026C0000024C0000022C0000020C0000014
:100060001EC000001CC0000011241FBECFEFD4E052
:10007000DEBFCDBF11E0A0E0B1E0EEEDFBE002C0DD
:1000800005900D92AE39B107D9F711E0AEE9B1E0B4
:1000900001C01D92AA3AB107E1F714D19EC5B0CFB5
:1000A000FF920F931F93CF93DF93C0E3D0E310E34E
:1000B00080E3F82ED7D2082FCED20D3029F0F12EC2
:1000C0001D2FDC2FC02FF6CF8AE0C5D26F2D70E038
:1000D00060537109E8EEF3E06E9FC0016F9F900DD1
:1000E0007E9F900D1124412F50E04053510924E68A
:1000F000249FB001259F700D1124860F971F2D2F6F
:1001000030E0205331096AE0629FA001639F500DE7
:100110001124840F951F8C0F911DC097DF91CF91F3
:100120001F910F91FF9008951F920F920FB60F929B
:1001300011248F939F9380918400909185008997DB
:1001400040F080918400909185009093A501809368
:10015000A40110928500109284009F918F910F90BE
:100160000FBE0F901F9018954F925F926F927F92E3
:100170008F929F92AF92BF92CF92DF92EF92FF92B7
:10018000CF93DF9300D000D0CDB7DEB720E030E0D2
:1001900048EC52E49FD401D520E030E048EC52E432
:1001A000F7D26B017C0120E030E040E251E4F0D274
:1001B0004B015C0120E030E040E452E481D255D3B1
:1001C000862F49D2C501B401B9D32B013C0120E0EF
:1001D00030E040E452E4C701B60172D24B015C0149
:1001E00020E030E040E251E4C301B20173D49B014E
:1001F000AC01C501B40163D238D3862F2CD28EE274
:100200002AD220E030E040E251E4C701B60162D4D6
:100210004B015C01C701B60191D32B013C0120E0E9
:1002200030E040E452E4C501B4014AD269837A83E4
:100230008B839C8320E030E040E251E4C301B201B3
:1002400049D49B01AC0169817A818B819C8137D231
:100250000CD3862F00D2C501B40170D34B015C01D1
:1002600020E030E048EC52E4C701B60133D420E08E
:1002700030E040E452E424D26B017C0120E030E025
:1002800040E251E4C501B40125D49B01AC01C70192
:10029000B60115D2EAD2862FDED180E091E00F9030
:1002A0000F900F900F90DF91CF91FF90EF90DF9024
:1002B000CF90BF90AF909F908F907F906F905F9006
:1002C0004F90D7C1CF93DF93CDB7DEB72E970FB640
:1002D000F894DEBF0FBECDBF91E080E80FB6F89472
:1002E00080936100909361000FBEA4D18091C00003
:1002F0008F778093C00084B5816084BD84B58260AF
:1003000084BD84B5806884BD85B5836085BD17BC18
:10031000809181008160809381008AB1876F8AB962
:1003200087B18E6F87B95B9A409A809169008C6023
:1003300080936900E99A569A412C512C612C2FE345
:10034000722E83E393E3A3E3BFE38D839E83AF83A6
:10035000B88780E090E0A0E0B0E489839A83AB8323
:10036000BC830AE010E08091C00087FF71C08091DB
:10037000C600803791F482E091E07BD191DEBC0130
:1003800080E090E09ED220E030E048EC52E400D2E1
:1003900069837A838B839C835BC0893691F48DE17A
:1003A00091E067D17DDEBC0180E090E08AD220E060
:1003B00030E048EC52E4ECD16D837E838F839887E4
:1003C00047C0843681F488E391E053D169DEBC01F3
:1003D00080E090E076D220E030E048EC52E4D8D1E2
:1003E0002B013C0135C08D36A9F487B58F5F87BDE1
:1003F000AFE4B3EC1197F1F700C0000087B58E3180
:10040000A0F383E591E035D14BDE90939F0180937B
:100410009E011EC08337E1F48BE891E02AD1698107
:100420007A818B819C81A0DE6D817E818F81988510
:100430009BDEC301B20198DE80E591E01AD1BFE7EF
:10044000EFE4F2E1B150E040F040E1F700C000001D
:10045000109285001092840078948FE097E20197C3
:10046000F1F700C00000F8946091A4017091A5011B
:1004700080E090E026D22DEB37E346E854E32AD320
:1004800020E030E040E054E425D39B01AC0160E083
:1004900070E080E792E47CD16093A0017093A101A9
:1004A0008093A2019093A30180919E0190919F015E
:1004B0002091A0013091A1014091A2015091A3018E
:1004C000BC0180E090E029873A874B875C87F9D1AF
:1004D00029853A854B855C85F2D04B015C01A09162
:1004E000A801B091A901BE87AD872090A6013090E8
:1004F000A7019B01AC0169817A818B819C81EAD241
:100500006B017C01ED85FE85BF01882777FD809515
:10051000982FD9D19B01AC016D817E818F81988507
:10052000D9D29B01AC01C701B601CAD06B017C01D5
:10053000B101882777FD8095982FC5D19B01AC012B
:10054000C501B401BCD09B01AC01C301B201C2D250
:100550009B01AC01C701B601B3D020E030E040E21E
:1005600052E416D16B017C0120E030E04AEF52E406
:10057000ADD2181664F020E030E0A901C701B60141
:1005800003D187FF0AC0C12CD12C760106C0C12C33
:10059000D12C9FE7E92E93E4F92EC501B40160D177
:1005A0007093A7016093A6016091A8017091A901C1
:1005B000882777FD8095982F86D1A501940180D05A
:1005C0004FD17093A9016093A801C701B6014DD125
:1005D00067BD6091A0017091A1018091A2019091ED
:1005E000A301DBD242D17B01CB0168EE73E053D093
:1005F00080E3860F30D0C70164E670E04CD0CB01B9
:10060000B80149D0805D27D0C701B80144D0F82E89
:10061000CB01B80140D0805D1ED080E38F0D1BD090
:1006200080E591E026D08FE097E20197F1F700C0D6
:10063000000099CE1092C50089E18093C400E0ECDF
:10064000F0E080818D7F808388E18093C10086E027
:100650008093C20008959091C00095FFFCCF8093D5
:10066000C60008958091C00087FFFCCF8091C6002E
:1006700008951F93CF93DF93EC0110E0FE01E10F8B
:10068000F11D8081882319F0E6DF1F5FF7CFDF912E
:10069000CF911F910895AA1BBB1B51E107C0AA1F50
:1006A000BB1FA617B70710F0A61BB70B881F991F13
:1006B0005A95A9F780959095BC01CD0108955058A1
:1006C000BB27AA270ED0B1C1A2D130F0A7D120F00C
:1006D00031F49F3F11F41EF497C10EF4E095E7FB4F
:1006E00064C1E92FB3D180F3BA1762077307840797
:1006F000950718F071F49EF5E2C10EF4E0950B2E0B
:10070000BA2FA02D0B01B90190010C01CA01A00163
:100710001124FF27591B99F0593F50F4503E68F1BE
:100720001A16F040A22F232F342F4427585FF3CFFF
:10073000469537952795A795F0405395C9F77EF4D0
:100740001F16BA0B620B730B840BBAF09150A1F019
:10075000FF0FBB1F661F771F881FC2F70EC0BA0F9F
:10076000621F731F841F48F4879577956795B79527
:10077000F7959E3F08F0B3CF9395880F08F099271F
:10078000EE0F979587950895ECD008F481E00895D1
:100790000CD04BC143D140F03AD130F021F45F3F4F
:1007A00019F003C151118CC12FC150D198F3992375
:1007B000C9F35523B1F3951B550BBB27AA27621725
:1007C0007307840738F09F5F5F4F220F331F441F6A
:1007D000AA1FA9F333D00E2E3AF0E0E830D09150A2
:1007E0005040E695001CCAF729D0FE2F27D0660F8F
:1007F000771F881FBB1F261737074807AB07B0E8CE
:1008000009F0BB0B802DBF01FF2793585F4F2AF0E3
:100810009E3F510568F0C9C053C15F3FECF3983E5D
:10082000DCF3869577956795B795F7959F5FC9F740
:10083000880F911D9695879597F90895E1E0660FC9
:10084000771F881FBB1F621773078407BA0720F042
:10085000621B730B840BBA0BEE1F88F7E0950895AB
:1008600004D06894B1112CC10895F8D088F09F5736
:1008700090F0B92F9927B751A0F0D1F0660F771FEC
:10088000881F991F1AF0BA95C9F712C0B13081F0CC
:1008900016D1B1E0089513C1672F782F8827B85F6C
:1008A00039F0B93FCCF3869577956795B395D9F72D
:1008B0003EF490958095709561957F4F8F4F9F4F37
:1008C0000895E89409C097FB3EF490958095709543
:1008D00061957F4F8F4F9F4F9923A9F0F92F96E98C
:1008E000BB279395F695879577956795B795F11101
:1008F000F8CFFAF4BB0F11F460FF1BC06F5F7F4F9E
:100900008F4F9F4F16C0882311F096E911C07723AF
:1009100021F09EE8872F762F05C0662371F096E8B8
:10092000862F70E060E02AF09A95660F771F881F87
:10093000DAF7880F9695879597F90895A9D080F0F2
:100940009F3740F491110EF0BBC060E070E080E88A
:100950009FEB089526F41B16611D711D811D2BC090
:1009600045C0990F0008550FAA0BE0E8FEEF1616D8
:100970001706E807F907C0F012161306E407F50793
:1009800098F0621B730B840B950B39F40A2661F007
:10099000232B242B252B21F408950A2609F4A140AA
:1009A000A6958FEF811D811D089597F99F6780E8B7
:1009B00070E060E00895882371F4772321F0985067
:1009C000872B762F07C0662311F499270DC090510D
:1009D000862B70E060E02AF09A95660F771F881FDB
:1009E000DAF7880F9695879597F908959F3F31F02C
:1009F000915020F4879577956795B795880F911D4D
:100A00009695879597F908959FEF80EC08950024B7
:100A10000A941616170618060906089500240A9463
:100A200012161306140605060895092E0394000CE9
:100A300011F4882352F0BB0F40F4BF2B11F460FF78
:100A400004C06F5F7F4F8F4F9F4F089557FD9058A1
:100A5000440F551F59F05F3F71F04795880F97FB82
:100A6000991F61F09F3F79F087950895121613063C
:100A70001406551FF2CF4695F1DF08C0161617066B
:100A80001806991FF1CF86957105610508940895A0
:100A9000E5DFA0F0BEE7B91788F4BB279F3860F404
:100AA0001616B11D672F782F8827985FF7CF869588
:100AB00077956795B11D93959639C8F30895E89495
:100AC000BB2766277727CB0197F908954ADF08F4FB
:100AD0008FEF08950BD0A9CF9ADF28F09FDF18F091
:100AE000952309F062CF90CF1124EACFAFDFA0F3B6
:100AF000959FD1F3950F50E0551F629FF001729FB3
:100B0000BB27F00DB11D639FAA27F00DB11DAA1FD1
:100B1000649F6627B00DA11D661F829F2227B00D1E
:100B2000A11D621F739FB00DA11D621F839FA00DA9
:100B3000611D221F749F3327A00D611D231F849FF9
:100B4000600D211D822F762F6A2F11249F57504050
:100B50008AF0E1F088234AF0EE0FFF1FBB1F661FEB
:100B6000771F881F91505040A9F79E3F510570F0A4
:100B70001CCFA6CF5F3FECF3983EDCF386957795CC
:100B80006795B795F795E7959F5FC1F7FE2B880F9F
:100B9000911D9695879597F9089560DFE0F09E374F
:100BA000D8F09639B8F49E3848F4672F782F882704
:100BB000985FF9CF86957795679593959539D0F39A
:100BC000B62FB1706B0F711D811D20F4879577953D
:0E0BD00067959395F0CE0ACF73CFF894FFCFC0
:100BDE00090053657474696E67204B7020706172E2
:100BEE00616765746572732E2E2E0D0A005365743F
:100BFE0074696E67204B69207061726167657465F8
:100C0E0072732E2E2E0D0A0053657474696E672052
:100C1E004B6420706172616765746572732E2E2E3F
:100C2E000D0A000D0A456E746572206120646573AD
:100C3E00697265642072706D206E756D62657220CA
:100C4E00666F72206D6F746F722028323030207490
:100C5E006F2035303030293A0D0A004B702020209D
:0E0C6E0020204B6920202020204B640D0A001E
:00000001FF
