:1000000033C000004CC0000078C0000048C00000B1
:1000100046C0000044C0000042C0000040C00000D4
:100020003EC000003CC000003AC0000038C00000E4
:1000300036C0000034C0000032C0000030C00000F4
:100040002EC000002CC000002AC0000028C0000004
:1000500026C0000024C0000022C0000020C0000014
:100060001EC000001CC0000011241FBECFEFD4E052
:10007000DEBFCDBF11E0A0E0B1E0ECE3FCE002C0E8
:1000800005900D92A836B107D9F711E0A8E6B1E0C6
:1000900001C01D92A437B107E1F7FED0CDC5B0CFA6
:1000A000109285001092840078948FE19EE401976D
:1000B000F1F700C00000F89460916C0170916D013F
:1000C00080E090E02DD42DEB37E346E054E331D5CA
:1000D00020E030E84CEF53E42CD59B01AC0160E00C
:1000E00070E080E792E483D36093680170936901C4
:1000F00080936A0190936B0108951F920F920FB63F
:100100000F9211248F939F9380918400909185008A
:100110008135910540F08091840090918500909305
:100120006D0180936C0110928500109284009F9164
:100130008F910F900FBE0F901F9018954F925F9266
:100140006F927F928F929F92AF92BF92CF92DF92E7
:10015000EF92FF92CF93DF9300D000D0CDB7DEB700
:1001600020E030E048EC52E4E4D446D520E030E032
:1001700048EC52E43CD36B017C0120E030E040E2EB
:1001800051E435D34B015C0120E030E040E452E41F
:10019000C6D29AD3862F8ED2C501B401FED32B01CD
:1001A0003C0120E030E040E452E4C701B601B7D2A0
:1001B0004B015C0120E030E040E251E4C301B201B8
:1001C000B8D49B01AC01C501B401A8D27DD3862F60
:1001D00071D28EE26FD220E030E040E251E4C701FC
:1001E000B601A7D44B015C01C701B601D6D32B01E0
:1001F0003C0120E030E040E452E4C501B4018FD27C
:1002000069837A838B839C8320E030E040E251E471
:10021000C301B2018ED49B01AC0169817A818B81CB
:100220009C817CD251D3862F45D2C501B401B5D370
:100230004B015C0120E030E048EC52E4C701B6011C
:1002400078D420E030E040E452E469D26B017C01D4
:1002500020E030E040E251E4C501B4016AD49B01E2
:10026000AC01C701B6015AD22FD3862F23D280E02A
:1002700091E00F900F900F900F90DF91CF91FF9032
:10028000EF90DF90CF90BF90AF909F908F907F9036
:100290006F905F904F901CC2CF93DF9300D000D03F
:1002A000CDB7DEB790E080E80FB6F8948093610098
:1002B000909361000FBE82E390E090936F01809372
:1002C0006E01E7D18091C0008F778093C00084B524
:1002D000816084BD84B5826084BD84B5806884BD3E
:1002E00085B5836085BD80918100816080938100A8
:1002F0008AB1876F8AB987B18E6F87B95B9A409A46
:10030000809169008C6080936900E99A8AB1806C61
:100310008AB95F9A00E117E268EE862E63E0962EB6
:100320008091C00087FFEDC08091C600823709F040
:100330004BC082E091E0CCD187B5882369F087B5C6
:10034000815087BD2FE788E391E0215080409040A5
:10035000E1F700C00000F0CF609168017091690181
:1003600080916A0190916B0120E030E048E453E411
:10037000DCD3181614F494DEEFCF8BB180588BB910
:1003800087B58F5F87BDEFEFF0E722E0E150F040E7
:100390002040E1F700C0000083DEC0906801D090EB
:1003A0006901E0906A01F0906B0160916E017091BB
:1003B0006F0180E090E0B4D29B01AC01C701B601AF
:1003C00012D287FDDDCF9DC08D3609F07AC08BE15A
:1003D00091E07ED190E3F92E20E3E22E30E3D32E9C
:1003E00040E3C42E50E3A52E6CD1B82E63D18DE02E
:1003F000B81631F0AC2CCD2CDE2CEF2CFB2CF4CF2E
:100400008AE058D1EA2DF0E0F097E09FC001E19F2B
:10041000900DF09F900D11246C2D70E060537109C8
:10042000689DF001699DF00D789DF00D11248E0FEF
:100430009F1F4D2D50E040535109E4E6E49FB00169
:10044000E59F700D1124860F971F2E2D30E020534D
:1004500031096AE0629FA001639F500D1124840F4F
:10046000951F8F0D911DC09790936F0180936E0122
:10047000C0906801D0906901E0906A01F0906B0132
:1004800060916E0170916F0180E090E049D29B0114
:10049000AC01C701B601A7D187FF0EC087B58F5F3A
:1004A00087BDFFE728E381E0F15020408040E1F77D
:1004B00000C00000F5DDDCCF1092710110927001D8
:1004C00020C08337F1F484E591E002D160E070E070
:1004D00080E090E433DE6DEC7CEC8CE49DE32EDE7A
:1004E00060E070E080EA90E429DE88E191E0F0D0FD
:1004F0009FEFEEE9F4E29150E040F040E1F700C0F8
:100500000000CEDD60916E0170916F012091680155
:100510003091690140916A0150916B0180E090E057
:1005200029833A834B835C83FBD129813A814B81B8
:100530005C81F4D06B017C01A0907201B0907301DA
:1005400020907001309071019B01AC01E8D02B012B
:100550003C01B501882777FD8095982FE3D12DECDC
:100560003CEC4CE45DE3E5D29B01AC01C301B2017C
:10057000D6D02B013C01B101882777FD8095982FBB
:10058000D1D19B01AC01C701B601C8D020E030E059
:1005900040EA50E4CED29B01AC01C301B201BFD00E
:1005A00020E030E040EA52E422D12B013C0120E07F
:1005B00030E04FE753E4B9D2181664F020E030E0A1
:1005C000A901C301B2010FD187FF0AC0412C512CF0
:1005D000320106C0412C512C8FE7682E83E4782E1F
:1005E000C701B6016CD17093710160937001809165
:1005F000720190917301BC01882777FD8095982F37
:1006000091D1A70196018BD05AD170937301609359
:100610007201C301B20158D167BD60916801709148
:10062000690180916A0190916B01E6D24DD17B0105
:10063000CB01B8015FD080E3860F3CD0C701B40185
:1006400059D0CB016AE070E055D0805D33D0C7014E
:1006500064E670E04FD0CB016AE070E04BD0805D83
:1006600029D0C7016AE070E045D0F82ECB016AE0DE
:1006700070E040D0805D1ED080E38F0D1BD088E1FC
:1006800091E026D08FE19EE40197F1F700C00000D1
:1006900047CE1092C50089E18093C400E0ECF0E001
:1006A00080818D7F808388E18093C10086E0809384
:1006B000C20008959091C00095FFFCCF8093C600C2
:1006C00008958091C00087FFFCCF8091C6000895F7
:1006D0001F93CF93DF93EC0110E0FE01E10FF11DBA
:1006E0008081882319F0E6DF1F5FF7CFDF91CF917C
:1006F0001F910895AA1BBB1B51E107C0AA1FBB1F76
:10070000A617B70710F0A61BB70B881F991F5A959D
:10071000A9F780959095BC01CD0108955058BB274D
:10072000AA270ED0B1C1A2D130F0A7D120F031F468
:100730009F3F11F41EF497C10EF4E095E7FB64C1EE
:10074000E92FB3D180F3BA176207730784079507BF
:1007500018F071F49EF5E2C10EF4E0950B2EBA2F5D
:10076000A02D0B01B90190010C01CA01A0011124B7
:10077000FF27591B99F0593F50F4503E68F11A1663
:10078000F040A22F232F342F4427585FF3CF4695F4
:1007900037952795A795F0405395C9F77EF41F1616
:1007A000BA0B620B730B840BBAF09150A1F0FF0FE0
:1007B000BB1F661F771F881FC2F70EC0BA0F621FCC
:1007C000731F841F48F4879577956795B795F795BC
:1007D0009E3F08F0B3CF9395880F08F09927EE0F4E
:1007E000979587950895ECD008F481E008950CD092
:1007F0004BC143D140F03AD130F021F45F3F19F0C2
:1008000003C151118CC12FC150D198F39923C9F361
:100810005523B1F3951B550BBB27AA276217730706
:10082000840738F09F5F5F4F220F331F441FAA1FBA
:10083000A9F333D00E2E3AF0E0E830D0915050407A
:10084000E695001CCAF729D0FE2F27D0660F771F28
:10085000881FBB1F261737074807AB07B0E809F00A
:10086000BB0B802DBF01FF2793585F4F2AF09E3F9F
:10087000510568F0C9C053C15F3FECF3983EDCF30B
:10088000869577956795B795F7959F5FC9F7880F18
:10089000911D9695879597F90895E1E0660F771F6A
:1008A000881FBB1F621773078407BA0720F0621BFB
:1008B000730B840BBA0BEE1F88F7E095089504D0F4
:1008C0006894B1112CC10895F8D088F09F5790F02A
:1008D000B92F9927B751A0F0D1F0660F771F881F65
:1008E000991F1AF0BA95C9F712C0B13081F016D12C
:1008F000B1E0089513C1672F782F8827B85F39F0CA
:10090000B93FCCF3869577956795B395D9F73EF4C3
:1009100090958095709561957F4F8F4F9F4F08956B
:10092000E89409C097FB3EF4909580957095619589
:100930007F4F8F4F9F4F9923A9F0F92F96E9BB273F
:100940009395F695879577956795B795F111F8CFBB
:10095000FAF4BB0F11F460FF1BC06F5F7F4F8F4F26
:100960009F4F16C0882311F096E911C0772321F01C
:100970009EE8872F762F05C0662371F096E8862FB4
:1009800070E060E02AF09A95660F771F881FDAF70B
:10099000880F9695879597F90895A9D080F09F378D
:1009A00040F491110EF0BBC060E070E080E89FEB76
:1009B000089526F41B16611D711D811D2BC045C0B5
:1009C000990F0008550FAA0BE0E8FEEF1616170660
:1009D000E807F907C0F012161306E407F50798F0C8
:1009E000621B730B840B950B39F40A2661F0232BE1
:1009F000242B252B21F408950A2609F4A140A6955D
:100A00008FEF811D811D089597F99F6780E870E041
:100A100060E00895882371F4772321F09850872BA4
:100A2000762F07C0662311F499270DC09051862BAD
:100A300070E060E02AF09A95660F771F881FDAF75A
:100A4000880F9695879597F908959F3F31F09150BB
:100A500020F4879577956795B795880F911D9695A2
:100A6000879597F908959FEF80EC089500240A94E4
:100A70001616170618060906089500240A94121679
:100A80001306140605060895092E0394000C11F4AC
:100A9000882352F0BB0F40F4BF2B11F460FF04C059
:100AA0006F5F7F4F8F4F9F4F089557FD9058440FB2
:100AB000551F59F05F3F71F04795880F97FB991FBD
:100AC00061F09F3F79F0879508951216130614067A
:100AD000551FF2CF4695F1DF08C016161706180607
:100AE000991FF1CF86957105610508940895E5DF9A
:100AF000A0F0BEE7B91788F4BB279F3860F416163C
:100B0000B11D672F782F8827985FF7CF8695779547
:100B10006795B11D93959639C8F30895E894BB275E
:100B200066277727CB0197F908954ADF08F48FEFFE
:100B300008950BD0A9CF9ADF28F09FDF18F09523F6
:100B400009F062CF90CF1124EACFAFDFA0F3959FD9
:100B5000D1F3950F50E0551F629FF001729FBB27A4
:100B6000F00DB11D639FAA27F00DB11DAA1F649F50
:100B70006627B00DA11D661F829F2227B00DA11D03
:100B8000621F739FB00DA11D621F839FA00D611D89
:100B9000221F749F3327A00D611D231F849F600DAA
:100BA000211D822F762F6A2F11249F5750408AF0E3
:100BB000E1F088234AF0EE0FFF1FBB1F661F771F6F
:100BC000881F91505040A9F79E3F510570F01CCFEF
:100BD000A6CF5F3FECF3983EDCF38695779567955B
:100BE000B795F795E7959F5FC1F7FE2B880F911D8D
:100BF0009695879597F9089560DFE0F09E37D8F0D5
:100C00009639B8F49E3848F4672F782F8827985F74
:100C1000F9CF86957795679593959539D0F3B62F4B
:100C2000B1706B0F711D811D20F4879577956795C5
:0C0C30009395F0CE0ACF73CFF894FFCF5D
:100C3C000900526976657273696E67204469726542
:100C4C006374696F6E2E2E2E0D0A000D0A456E749C
:100C5C006572206120646573697265642072706DC1
:100C6C00206E756D62657220666F72206D6F746F89
:100C7C0072202832303020746F20313030303029DF
:100C8C003A0D0A004B7020202020204B6920202098
:080C9C0020204B640D0A00004A
:00000001FF
