:1000000033C000004CC000004BC0000048C00000DE
:1000100046C0000044C0000042C0000040C00000D4
:100020003EC000003CC000003AC0000038C00000E4
:1000300036C0000034C0000032C0000030C00000F4
:100040002EC000002CC000002AC0000028C0000004
:1000500026C0000024C0000022C0000020C0000014
:100060001EC000001CC0000011241FBECFEFD4E052
:10007000DEBFCDBF11E0A0E0B1E0EEE1F6E002C0EE
:1000800005900D92AE31B107D9F711E0AEE1B1E0C4
:1000900001C01D92A532B107E1F728D0BEC2B0CF92
:1000A0001F920F920FB60F9211248F939F934B9B29
:1000B00016C0309B09C081E0809324018091220109
:1000C00090912301019607C0109224018091220192
:1000D00090912301019790932301809322019F9196
:1000E0008F910F900FBE0F901F90189590E080E8B1
:1000F0000FB6F89480936100909361000FBE81D099
:1001000080E091E096D08AB1876F8AB987B18E6F0F
:1001100087B95B9A409A809169008C6080936900EE
:10012000E99A80E1C82E87E2D82E98EEE92E93E076
:10013000F92ECAE0D0E004E610E0109223011092FC
:10014000220178948FE19EE40197F1F700C000004E
:10015000F894609122017091230180E090E023D116
:1001600020E030E04AEF53E48AD020E030E048EC71
:1001700052E4A7D120E030E040E752E4A2D16093FE
:100180001E0170931F0180932001909321016091C3
:100190001E0170911F018091200190912101F4D1E5
:1001A000D6D05B01CB01B60156D080E3860F3AD0A2
:1001B000C501B70150D0CB01BE014DD0805D32D01A
:1001C000C501B80148D0CB01BE0145D0805D2AD021
:1001D000C501BE0140D0B82ECB01BE013CD0805D30
:1001E00021D080E38B0D1ED08AE191E022D09FEFD9
:1001F00022E587E0915020408040E1F700C00000F8
:100200009CCF1092C50083E38093C400E0ECF0E043
:1002100080818D7F808388E18093C10086E0809318
:10022000C20008959091C00095FFFCCF8093C60056
:1002300008951F93CF93DF93EC0110E0FE01E10FCF
:10024000F11D8081882319F0EDDF1F5FF7CFDF916B
:10025000CF911F910895AA1BBB1B51E107C0AA1F94
:10026000BB1FA617B70710F0A61BB70B881F991F57
:100270005A95A9F780959095BC01CD0108950CD0B1
:10028000E6C0DED040F0D5D030F021F45F3F19F069
:10029000C7C0511110C1CAC0EBD098F39923C9F35C
:1002A0005523B1F3951B550BBB27AA27621773077C
:1002B000840738F09F5F5F4F220F331F441FAA1F30
:1002C000A9F333D00E2E3AF0E0E830D091505040F0
:1002D000E695001CCAF729D0FE2F27D0660F771F9E
:1002E000881FBB1F261737074807AB07B0E809F080
:1002F000BB0B802DBF01FF2793585F4F2AF09E3F15
:10030000510568F08DC0D7C05F3FECF3983EDCF339
:10031000869577956795B795F7959F5FC9F7880F8D
:10032000911D9695879597F90895E1E0660F771FDF
:10033000881FBB1F621773078407BA0720F0621B70
:10034000730B840BBA0BEE1F88F7E095089598D0D5
:1003500088F09F5790F0B92F9927B751A0F0D1F0AE
:10036000660F771F881F991F1AF0BA95C9F712C038
:10037000B13081F09FD0B1E008959CC0672F782FF5
:100380008827B85F39F0B93FCCF3869577956795A4
:10039000B395D9F73EF490958095709561957F4F10
:1003A0008F4F9F4F0895E89409C097FB3EF49095B6
:1003B0008095709561957F4F8F4F9F4F9923A9F03E
:1003C000F92F96E9BB279395F695879577956795CD
:1003D000B795F111F8CFFAF4BB0F11F460FF1BC011
:1003E0006F5F7F4F8F4F9F4F16C0882311F096E9A4
:1003F00011C0772321F09EE8872F762F05C0662352
:1004000071F096E8862F70E060E02AF09A95660F0A
:10041000771F881FDAF7880F9695879597F90895C3
:1004200097F99F6780E870E060E008959FEF80ECA7
:10043000089500240A94161617061806090608954A
:1004400000240A9412161306140605060895092EB0
:100450000394000C11F4882352F0BB0F40F4BF2B1F
:1004600011F460FF04C06F5F7F4F8F4F9F4F08955F
:1004700057FD9058440F551F59F05F3F71F0479555
:10048000880F97FB991F61F09F3F79F0879508953A
:10049000121613061406551FF2CF4695F1DF08C059
:1004A000161617061806991FF1CF86957105610576
:1004B00008940895E894BB2766277727CB0197F91E
:1004C00008950BD0C4CFB5DF28F0BADF18F095231C
:1004D00009F0A6CFABCF1124EECFCADFA0F3959FD2
:1004E000D1F3950F50E0551F629FF001729FBB271B
:1004F000F00DB11D639FAA27F00DB11DAA1F649FC7
:100500006627B00DA11D661F829F2227B00DA11D79
:10051000621F739FB00DA11D621F839FA00D611DFF
:10052000221F749F3327A00D611D231F849F600D20
:10053000211D822F762F6A2F11249F5750408AF059
:10054000E1F088234AF0EE0FFF1FBB1F661F771FE5
:10055000881F91505040A9F79E3F510570F060CF21
:10056000AACF5F3FECF3983EDCF3869577956795CD
:10057000B795F795E7959F5FC1F7FE2B880F911D03
:100580009695879597F908957BDFE0F09E37D8F030
:100590009639B8F49E3848F4672F782F8827985FEB
:1005A000F9CF86957795679593959539D0F3B62FC2
:1005B000B1706B0F711D811D20F48795779567953C
:1005C000939502C01CC077CF882371F4772321F064
:1005D0009850872B762F07C0662311F499270DC0FA
:1005E0009051862B70E060E02AF09A95660F771F95
:1005F000881FDAF7880F9695879597F908959F3F9A
:1006000031F0915020F4879577956795B795880FCD
:0E061000911D9695879597F90895F894FFCF60
:10061E000D0A446973706C6179204443204D6F74E8
:0E062E006F722053706565640D0A0D0A00009E
:00000001FF
