:1000000033C000004CC000008FC0000048C000009A
:1000100046C0000044C0000042C0000040C00000D4
:100020003EC000003CC000003AC0000039C00000E3
:1000300036C0000034C0000032C0000030C00000F4
:100040002EC000002CC000002AC0000028C0000004
:1000500026C0000024C0000022C0000020C0000014
:100060001EC000001CC0000011241FBECFEFD4E052
:10007000DEBFCDBF11E0A0E0B1E0E2E9F5E002C0F3
:1000800005900D92AE31B107D9F711E0AEE1B1E0C4
:1000900001C01D92A532B107E1F76AD078C2B0CF96
:1000A0001F920F920FB60F9211242F933F934F93ED
:1000B0005F936F937F938F939F93AF93BF93EF93D0
:1000C000FF93609122017091230180E090E025D19F
:1000D00020E030E040E05BE386D120E030E040E229
:1000E00051E481D120E030E040E752E47CD16093DC
:1000F0001E0170931F0180932001909321011092A3
:10010000230110922201FF91EF91BF91AF919F9136
:100110008F917F916F915F914F913F912F910F90B0
:100120000FBE0F901F9018951F920F920FB60F924F
:1001300011248F939F93309B09C081E08093240109
:100140008091220190912301019607C01092240111
:100150008091220190912301019790932301809334
:1001600022019F918F910F900FBE0F901F901895B5
:1001700090E080E80FB6F89480936100909361005E
:100180000FBE61D080E091E076D0809181008860E0
:100190008093810080916F00826080936F008BED6F
:1001A00090E3909389008093880080918100826021
:1001B000809381008AB1876F8AB987B18E6F87B9C2
:1001C0005B9A409A809169008C6080936900E99AFB
:1001D000789488EEE82E83E0F82E04E610E0CAE07A
:1001E000D0E060911E0170911F01809120019091DB
:1001F00021015CD166D06B01CB01B7014ED080E309
:10020000860F32D0C601B80148D0CB01B80145D025
:10021000805D2AD0C601BE0140D0D82ECB01BE01E0
:100220003CD0805D21D080E38D0D1ED08AE191E02D
:1002300022D02FEF84E39CE0215080409040E1F7F2
:1002400000C00000CECF1092C50083E38093C400AD
:10025000E0ECF0E080818D7F808388E18093C100B5
:1002600086E08093C20008959091C00095FFFCCF76
:100270008093C60008951F93CF93DF93EC0110E0A5
:10028000FE01E10FF11D8081882319F0EDDF1F5F72
:10029000F7CFDF91CF911F910895AA1BBB1B51E1AE
:1002A00007C0AA1FBB1FA617B70710F0A61BB70BE6
:1002B000881F991F5A95A9F780959095BC01CD018B
:1002C000089570D088F09F5790F0B92F9927B751B3
:1002D000A0F0D1F0660F771F881F991F1AF0BA950A
:1002E000C9F712C0B13081F077D0B1E0089574C081
:1002F000672F782F8827B85F39F0B93FCCF3869500
:1003000077956795B395D9F73EF49095809570955C
:1003100061957F4F8F4F9F4F0895E89409C097FBD9
:100320003EF490958095709561957F4F8F4F9F4FCC
:100330009923A9F0F92F96E9BB279395F695879510
:1003400077956795B795F111F8CFFAF4BB0F11F4D3
:1003500060FF1BC06F5F7F4F8F4F9F4F16C088237A
:1003600011F096E911C0772321F09EE8872F762FB0
:1003700005C0662371F096E8862F70E060E02AF0F1
:100380009A95660F771F881FDAF7880F96958795DD
:1003900097F9089557FD9058440F551F59F05F3F46
:1003A00071F04795880F97FB991F61F09F3F79F097
:1003B00087950895121613061406551FF2CF469519
:1003C000F1DF08C0161617061806991FF1CF86959B
:1003D0007105610508940895E894BB27662777277F
:1003E000CB0197F908950BD0C1C0B2D028F0B7D097
:1003F00018F0952309F07AC0A8C01124EECFCADF07
:10040000A0F3959FD1F3950F50E0551F629FF00127
:10041000729FBB27F00DB11D639FAA27F00DB11D80
:10042000AA1F649F6627B00DA11D661F829F222709
:10043000B00DA11D621F739FB00DA11D621F839F90
:10044000A00D611D221F749F3327A00D611D231F66
:10045000849F600D211D822F762F6A2F11249F57B4
:1004600050408AF0E1F088234AF0EE0FFF1FBB1FD7
:10047000661F771F881F91505040A9F79E3F510576
:1004800070F034C0AACF5F3FECF3983EDCF3869562
:1004900077956795B795F795E7959F5FC1F7FE2B21
:1004A000880F911D9695879597F908957BDFE0F069
:1004B0009E37D8F09639B8F49E3848F4672F782FD5
:1004C0008827985FF9CF86957795679593959539A5
:1004D000D0F3B62FB1706B0F711D811D20F487957D
:1004E00077956795939508C022C077CF97F99F6756
:1004F00080E870E060E00895882371F4772321F0AC
:100500009850872B762F07C0662311F499270DC0CA
:100510009051862B70E060E02AF09A95660F771F65
:10052000881FDAF7880F9695879597F908959F3F6A
:1005300031F0915020F4879577956795B795880F9E
:10054000911D9695879597F908959FEF80EC0895F2
:1005500000240A94161617061806090608950024A2
:100560000A9412161306140605060895092E03941C
:10057000000C11F4882352F0BB0F40F4BF2B11F490
:1005800060FF04C06F5F7F4F8F4F9F4F0895F894B7
:02059000FFCF9B
:100592000D0A446973706C6179204443204D6F7475
:0E05A2006F722053706565640D0A0D0A00002B
:00000001FF
