:1000000009C00EC00DC00CC00BC00AC009C008C09A
:1000100007C006C011241FBECFE9CDBF19D040C014
:10002000EFCFB09908C081E28A95F1F7000086B35E
:1000300080958170089580E00895B09B07C081E2AB
:100040008A95F1F7000086B38170089580E00895E5
:10005000C09A87B3886187BBC0E0C39AC49AE1DFC6
:10006000882369F0C1110AC0C4982FE382E49FE09D
:10007000215080409040E1F700C00000C1E0DDDF8A
:10008000882359F3C13041F7C49AC3982FE38DE018
:1000900093E0215080409040E1F700C00000DCCFA9
:0400A000F894FFCF02
:00000001FF
