:1000000033C0000041C000003FC000003DC0000000
:1000100047C0000039C0000037C00000A3C0000086
:1000200033C0000031C000002FC000002DC0000010
:100030002BC0000029C000006DC0000025C00000DA
:1000400023C0000021C000001FC000001DC0000030
:100050001BC0000019C0000017C0000015C0000040
:1000600013C0000011C0000011241FBECFEFD4E068
:10007000DEBFCDBF11E0A0E0B1E001C01D92A13014
:10008000B107E1F7E6D022C2BBCFE8E6F0E080811D
:1000900082608083ECE6F0E0808180628083089556
:1000A0001F920F920FB60F9211242F938F939F934D
:1000B00085B190E1892785B9569A8DE787BD239A46
:1000C0008093B3002FE986E891E021508040904072
:1000D000E1F700C00000D99A9F918F912F910F9066
:1000E0000FBE0F901F90189567BD20916E00226083
:1000F00020936E00569A109200012091000130E08A
:1001000028173907D1F7569880916E008D7F80931C
:100110006E0008951F920F920FB60F9211248F93C5
:10012000809100018F5F809300018F910F900FBE2F
:100130000F901F9018956093B3002091700022607B
:1001400020937000239A109200012091000130E06A
:1001500028173907D1F72398809170008D7F8093FD
:10016000700008951F920F920FB60F9211248F9373
:10017000809100018F5F809300018F910F900FBEDF
:100180000F901F901895489908C081E28A95F1F761
:10019000000089B180958170089580E008954999A3
:1001A0000AC081E28A95F1F7000089B186958170D5
:1001B00091E08927089580E008954A990BC081E273
:1001C0008A95F1F7000089B182FB882780F991E0D8
:1001D0008927089580E008954B990BC081E28A95A4
:1001E000F1F7000089B183FB882780F991E0892726
:1001F000089580E008954C990AC081E28A95F1F74C
:10020000000089B18295817091E08927089580E08E
:1002100008954F990AC081E28A95F1F7000089B1EB
:100220008095881F8827881F089580E00895909101
:100230007C00907F982B90937C0080917A00806462
:1002400080937A0080917A0086FDFCCF80917900BE
:10025000089584B5826084BD84B5806484BD85B50D
:10026000826085BD9FEF97BD8091800088608093FC
:100270008000809180008160809380008091800068
:1002800080628093800080918000806A80938000EB
:10029000809181008260809381008091B0008260B3
:1002A0008093B0008091B00080648093B000809112
:1002B000B10082608093B1009093B300459A8BB1F6
:1002C0008F698BB984B1866184B985B18F6E85B928
:1002D000569A8DE787BD2FED83E994E02150804049
:1002E0009040E1F700C000008AB18F6B8AB92C9A68
:1002F000239A8DE78093B3002FE986E891E021509F
:1003000080409040E1F700C0000084B1876F84B95D
:100310007894BBDE80917C00806480937C00809127
:100320007A00836080937A0080917C008062809361
:100330007C0080917A00806880937A00D0E010E0A1
:1003400080E075DF90E0909389008093880081E0E1
:100350006EDF90E090938B0080938A0056982398EC
:100360002CDF882359F081E018272FE38DE093E0FC
:10037000215080409040E1F700C000004ADF882310
:1003800059F081E0D8272FE38DE093E021508040A1
:100390009040E1F700C00000113031F100DF882308
:1003A00081F02C98569ACFEF49990CC0C432E0F3F3
:1003B000C7BDC15085EA9EE00197F1F700C000007B
:1003C000F3CFCFEFE0DE8823A1F12C9A569A48991B
:1003D00030C0C432E0F3C7BDC15081EE94E0019754
:1003E000F1F700C00000F3CFCEDE811104C0D7DEEC
:1003F000811111C00EC04899FACF2C9A6FEF81E09D
:1004000090E072DE87EA91E60197F1F700C0000004
:10041000F2CFCFEF0EC04999FCCF2C986FEF81E05F
:1004200090E062DE87EA91E60197F1F700C00000F4
:10043000F2CFD13041F1D0DE882381F02C9A239A7B
:100440004B990CC0C432E0F3C093B300C15083ECAD
:1004500099E00197F1F700C00000F2CFCCDE8111E6
:1004600002C0D0E06DCF2C98239A4C99FACFC432B9
:10047000E0F3C093B300C15081EE94E00197F1F72F
:1004800000C00000F2CFA8DE811104C0B4DE8111EB
:100490000FC056CF4B99FACF2C9A6FEF81E090E0C6
:1004A0004ADE87EA91E60197F1F700C00000F2CF3B
:1004B0004C9946CF2C986FEF81E090E03CDE87EAC4
:1004C00091E60197F1F700C00000F2CFF894FFCF5A
:00000001FF
